{
  "_format": "hh-sol-artifact-1",
  "contractName": "ERC721Mock",
  "sourceName": "contracts/ERC721Mock.sol",
  "abi": [
    {
      "inputs": [
        {
          "internalType": "string",
          "name": "name",
          "type": "string"
        },
        {
          "internalType": "string",
          "name": "symbol",
          "type": "string"
        }
      ],
      "stateMutability": "nonpayable",
      "type": "constructor"
    },
    {
      "anonymous": false,
      "inputs": [
        {
          "indexed": true,
          "internalType": "address",
          "name": "owner",
          "type": "address"
        },
        {
          "indexed": true,
          "internalType": "address",
          "name": "approved",
          "type": "address"
        },
        {
          "indexed": true,
          "internalType": "uint256",
          "name": "tokenId",
          "type": "uint256"
        }
      ],
      "name": "Approval",
      "type": "event"
    },
    {
      "anonymous": false,
      "inputs": [
        {
          "indexed": true,
          "internalType": "address",
          "name": "owner",
          "type": "address"
        },
        {
          "indexed": true,
          "internalType": "address",
          "name": "operator",
          "type": "address"
        },
        {
          "indexed": false,
          "internalType": "bool",
          "name": "approved",
          "type": "bool"
        }
      ],
      "name": "ApprovalForAll",
      "type": "event"
    },
    {
      "anonymous": false,
      "inputs": [
        {
          "indexed": true,
          "internalType": "address",
          "name": "from",
          "type": "address"
        },
        {
          "indexed": true,
          "internalType": "address",
          "name": "to",
          "type": "address"
        },
        {
          "indexed": true,
          "internalType": "uint256",
          "name": "tokenId",
          "type": "uint256"
        }
      ],
      "name": "Transfer",
      "type": "event"
    },
    {
      "inputs": [
        {
          "internalType": "address",
          "name": "to",
          "type": "address"
        },
        {
          "internalType": "uint256",
          "name": "tokenId",
          "type": "uint256"
        }
      ],
      "name": "approve",
      "outputs": [],
      "stateMutability": "nonpayable",
      "type": "function"
    },
    {
      "inputs": [
        {
          "internalType": "address",
          "name": "owner",
          "type": "address"
        }
      ],
      "name": "balanceOf",
      "outputs": [
        {
          "internalType": "uint256",
          "name": "",
          "type": "uint256"
        }
      ],
      "stateMutability": "view",
      "type": "function"
    },
    {
      "inputs": [
        {
          "internalType": "uint256",
          "name": "tokenId",
          "type": "uint256"
        }
      ],
      "name": "getApproved",
      "outputs": [
        {
          "internalType": "address",
          "name": "",
          "type": "address"
        }
      ],
      "stateMutability": "view",
      "type": "function"
    },
    {
      "inputs": [
        {
          "internalType": "address",
          "name": "owner",
          "type": "address"
        },
        {
          "internalType": "address",
          "name": "operator",
          "type": "address"
        }
      ],
      "name": "isApprovedForAll",
      "outputs": [
        {
          "internalType": "bool",
          "name": "",
          "type": "bool"
        }
      ],
      "stateMutability": "view",
      "type": "function"
    },
    {
      "inputs": [
        {
          "internalType": "address",
          "name": "to",
          "type": "address"
        },
        {
          "internalType": "uint256",
          "name": "tokenId",
          "type": "uint256"
        }
      ],
      "name": "mint",
      "outputs": [],
      "stateMutability": "nonpayable",
      "type": "function"
    },
    {
      "inputs": [],
      "name": "name",
      "outputs": [
        {
          "internalType": "string",
          "name": "",
          "type": "string"
        }
      ],
      "stateMutability": "view",
      "type": "function"
    },
    {
      "inputs": [
        {
          "internalType": "uint256",
          "name": "tokenId",
          "type": "uint256"
        }
      ],
      "name": "ownerOf",
      "outputs": [
        {
          "internalType": "address",
          "name": "",
          "type": "address"
        }
      ],
      "stateMutability": "view",
      "type": "function"
    },
    {
      "inputs": [
        {
          "internalType": "address",
          "name": "from",
          "type": "address"
        },
        {
          "internalType": "address",
          "name": "to",
          "type": "address"
        },
        {
          "internalType": "uint256",
          "name": "tokenId",
          "type": "uint256"
        }
      ],
      "name": "safeTransferFrom",
      "outputs": [],
      "stateMutability": "nonpayable",
      "type": "function"
    },
    {
      "inputs": [
        {
          "internalType": "address",
          "name": "from",
          "type": "address"
        },
        {
          "internalType": "address",
          "name": "to",
          "type": "address"
        },
        {
          "internalType": "uint256",
          "name": "tokenId",
          "type": "uint256"
        },
        {
          "internalType": "bytes",
          "name": "data",
          "type": "bytes"
        }
      ],
      "name": "safeTransferFrom",
      "outputs": [],
      "stateMutability": "nonpayable",
      "type": "function"
    },
    {
      "inputs": [
        {
          "internalType": "address",
          "name": "operator",
          "type": "address"
        },
        {
          "internalType": "bool",
          "name": "approved",
          "type": "bool"
        }
      ],
      "name": "setApprovalForAll",
      "outputs": [],
      "stateMutability": "nonpayable",
      "type": "function"
    },
    {
      "inputs": [
        {
          "internalType": "bytes4",
          "name": "interfaceId",
          "type": "bytes4"
        }
      ],
      "name": "supportsInterface",
      "outputs": [
        {
          "internalType": "bool",
          "name": "",
          "type": "bool"
        }
      ],
      "stateMutability": "view",
      "type": "function"
    },
    {
      "inputs": [],
      "name": "symbol",
      "outputs": [
        {
          "internalType": "string",
          "name": "",
          "type": "string"
        }
      ],
      "stateMutability": "view",
      "type": "function"
    },
    {
      "inputs": [],
      "name": "tokenIdTracker",
      "outputs": [
        {
          "internalType": "uint256",
          "name": "",
          "type": "uint256"
        }
      ],
      "stateMutability": "view",
      "type": "function"
    },
    {
      "inputs": [
        {
          "internalType": "uint256",
          "name": "tokenId",
          "type": "uint256"
        }
      ],
      "name": "tokenURI",
      "outputs": [
        {
          "internalType": "string",
          "name": "",
          "type": "string"
        }
      ],
      "stateMutability": "view",
      "type": "function"
    },
    {
      "inputs": [
        {
          "internalType": "address",
          "name": "from",
          "type": "address"
        },
        {
          "internalType": "address",
          "name": "to",
          "type": "address"
        },
        {
          "internalType": "uint256",
          "name": "tokenId",
          "type": "uint256"
        }
      ],
      "name": "transferFrom",
      "outputs": [],
      "stateMutability": "nonpayable",
      "type": "function"
    }
  ],
  "bytecode": "0x608060405234801561001057600080fd5b506040516129d53803806129d5833981810160405281019061003291906101d2565b81818160009081610043919061046b565b508060019081610053919061046b565b505050505061053d565b6000604051905090565b600080fd5b600080fd5b600080fd5b600080fd5b6000601f19601f8301169050919050565b7f4e487b7100000000000000000000000000000000000000000000000000000000600052604160045260246000fd5b6100c48261007b565b810181811067ffffffffffffffff821117156100e3576100e261008c565b5b80604052505050565b60006100f661005d565b905061010282826100bb565b919050565b600067ffffffffffffffff8211156101225761012161008c565b5b61012b8261007b565b9050602081019050919050565b60005b8381101561015657808201518184015260208101905061013b565b60008484015250505050565b600061017561017084610107565b6100ec565b90508281526020810184848401111561019157610190610076565b5b61019c848285610138565b509392505050565b600082601f8301126101b9576101b8610071565b5b81516101c9848260208601610162565b91505092915050565b600080604083850312156101e9576101e8610067565b5b600083015167ffffffffffffffff8111156102075761020661006c565b5b610213858286016101a4565b925050602083015167ffffffffffffffff8111156102345761023361006c565b5b610240858286016101a4565b9150509250929050565b600081519050919050565b7f4e487b7100000000000000000000000000000000000000000000000000000000600052602260045260246000fd5b6000600282049050600182168061029c57607f821691505b6020821081036102af576102ae610255565b5b50919050565b60008190508160005260206000209050919050565b60006020601f8301049050919050565b600082821b905092915050565b6000600883026103177fffffffffffffffffffffffffffffffffffffffffffffffffffffffffffffffff826102da565b61032186836102da565b95508019841693508086168417925050509392505050565b6000819050919050565b6000819050919050565b600061036861036361035e84610339565b610343565b610339565b9050919050565b6000819050919050565b6103828361034d565b61039661038e8261036f565b8484546102e7565b825550505050565b600090565b6103ab61039e565b6103b6818484610379565b505050565b5b818110156103da576103cf6000826103a3565b6001810190506103bc565b5050565b601f82111561041f576103f0816102b5565b6103f9846102ca565b81016020851015610408578190505b61041c610414856102ca565b8301826103bb565b50505b505050565b600082821c905092915050565b600061044260001984600802610424565b1980831691505092915050565b600061045b8383610431565b9150826002028217905092915050565b6104748261024a565b67ffffffffffffffff81111561048d5761048c61008c565b5b6104978254610284565b6104a28282856103de565b600060209050601f8311600181146104d557600084156104c3578287015190505b6104cd858261044f565b865550610535565b601f1984166104e3866102b5565b60005b8281101561050b578489015182556001820191506020850194506020810190506104e6565b868310156105285784890151610524601f891682610431565b8355505b6001600288020188555050505b505050505050565b6124898061054c6000396000f3fe608060405234801561001057600080fd5b50600436106100f55760003560e01c806342842e0e11610097578063a22cb46511610066578063a22cb46514610284578063b88d4fde146102a0578063c87b56dd146102bc578063e985e9c5146102ec576100f5565b806342842e0e146101ea5780636352211e1461020657806370a082311461023657806395d89b4114610266576100f5565b8063081812fc116100d3578063081812fc14610166578063095ea7b31461019657806323b872dd146101b257806340c10f19146101ce576100f5565b806301ffc9a7146100fa57806302bf3d561461012a57806306fdde0314610148575b600080fd5b610114600480360381019061010f9190611785565b61031c565b60405161012191906117cd565b60405180910390f35b6101326103fe565b60405161013f9190611801565b60405180910390f35b610150610404565b60405161015d91906118ac565b60405180910390f35b610180600480360381019061017b91906118fa565b610496565b60405161018d9190611968565b60405180910390f35b6101b060048036038101906101ab91906119af565b6104dc565b005b6101cc60048036038101906101c791906119ef565b6105f3565b005b6101e860048036038101906101e391906119af565b610653565b005b61020460048036038101906101ff91906119ef565b610661565b005b610220600480360381019061021b91906118fa565b610681565b60405161022d9190611968565b60405180910390f35b610250600480360381019061024b9190611a42565b610707565b60405161025d9190611801565b60405180910390f35b61026e6107be565b60405161027b91906118ac565b60405180910390f35b61029e60048036038101906102999190611a9b565b610850565b005b6102ba60048036038101906102b59190611c10565b610866565b005b6102d660048036038101906102d191906118fa565b6108c8565b6040516102e391906118ac565b60405180910390f35b61030660048036038101906103019190611c93565b610930565b60405161031391906117cd565b60405180910390f35b60007f80ac58cd000000000000000000000000000000000000000000000000000000007bffffffffffffffffffffffffffffffffffffffffffffffffffffffff1916827bffffffffffffffffffffffffffffffffffffffffffffffffffffffff191614806103e757507f5b5e139f000000000000000000000000000000000000000000000000000000007bffffffffffffffffffffffffffffffffffffffffffffffffffffffff1916827bffffffffffffffffffffffffffffffffffffffffffffffffffffffff1916145b806103f757506103f6826109c4565b5b9050919050565b60065481565b60606000805461041390611d02565b80601f016020809104026020016040519081016040528092919081815260200182805461043f90611d02565b801561048c5780601f106104615761010080835404028352916020019161048c565b820191906000526020600020905b81548152906001019060200180831161046f57829003601f168201915b5050505050905090565b60006104a182610a2e565b6004600083815260200190815260200160002060009054906101000a900473ffffffffffffffffffffffffffffffffffffffff169050919050565b60006104e782610681565b90508073ffffffffffffffffffffffffffffffffffffffff168373ffffffffffffffffffffffffffffffffffffffff1603610557576040517f08c379a000000000000000000000000000000000000000000000000000000000815260040161054e90611da5565b60405180910390fd5b8073ffffffffffffffffffffffffffffffffffffffff16610576610a79565b73ffffffffffffffffffffffffffffffffffffffff1614806105a557506105a48161059f610a79565b610930565b5b6105e4576040517f08c379a00000000000000000000000000000000000000000000000000000000081526004016105db90611e37565b60405180910390fd5b6105ee8383610a81565b505050565b6106046105fe610a79565b82610b3a565b610643576040517f08c379a000000000000000000000000000000000000000000000000000000000815260040161063a90611ec9565b60405180910390fd5b61064e838383610bcf565b505050565b61065d8282610ec8565b5050565b61067c83838360405180602001604052806000815250610866565b505050565b60008061068d836110e5565b9050600073ffffffffffffffffffffffffffffffffffffffff168173ffffffffffffffffffffffffffffffffffffffff16036106fe576040517f08c379a00000000000000000000000000000000000000000000000000000000081526004016106f590611f35565b60405180910390fd5b80915050919050565b60008073ffffffffffffffffffffffffffffffffffffffff168273ffffffffffffffffffffffffffffffffffffffff1603610777576040517f08c379a000000000000000000000000000000000000000000000000000000000815260040161076e90611fc7565b60405180910390fd5b600360008373ffffffffffffffffffffffffffffffffffffffff1673ffffffffffffffffffffffffffffffffffffffff168152602001908152602001600020549050919050565b6060600180546107cd90611d02565b80601f01602080910402602001604051908101604052809291908181526020018280546107f990611d02565b80156108465780601f1061081b57610100808354040283529160200191610846565b820191906000526020600020905b81548152906001019060200180831161082957829003601f168201915b5050505050905090565b61086261085b610a79565b8383611122565b5050565b610877610871610a79565b83610b3a565b6108b6576040517f08c379a00000000000000000000000000000000000000000000000000000000081526004016108ad90611ec9565b60405180910390fd5b6108c28484848461128e565b50505050565b60606108d382610a2e565b60006108dd6112ea565b905060008151116108fd5760405180602001604052806000815250610928565b8061090784611301565b604051602001610918929190612023565b6040516020818303038152906040525b915050919050565b6000600560008473ffffffffffffffffffffffffffffffffffffffff1673ffffffffffffffffffffffffffffffffffffffff16815260200190815260200160002060008373ffffffffffffffffffffffffffffffffffffffff1673ffffffffffffffffffffffffffffffffffffffff16815260200190815260200160002060009054906101000a900460ff16905092915050565b60007f01ffc9a7000000000000000000000000000000000000000000000000000000007bffffffffffffffffffffffffffffffffffffffffffffffffffffffff1916827bffffffffffffffffffffffffffffffffffffffffffffffffffffffff1916149050919050565b610a37816113cf565b610a76576040517f08c379a0000000000000000000000000000000000000000000000000000000008152600401610a6d90611f35565b60405180910390fd5b50565b600033905090565b816004600083815260200190815260200160002060006101000a81548173ffffffffffffffffffffffffffffffffffffffff021916908373ffffffffffffffffffffffffffffffffffffffff160217905550808273ffffffffffffffffffffffffffffffffffffffff16610af483610681565b73ffffffffffffffffffffffffffffffffffffffff167f8c5be1e5ebec7d5bd14f71427d1e84f3dd0314c0f7b2291e5b200ac8c7c3b92560405160405180910390a45050565b600080610b4683610681565b90508073ffffffffffffffffffffffffffffffffffffffff168473ffffffffffffffffffffffffffffffffffffffff161480610b885750610b878185610930565b5b80610bc657508373ffffffffffffffffffffffffffffffffffffffff16610bae84610496565b73ffffffffffffffffffffffffffffffffffffffff16145b91505092915050565b8273ffffffffffffffffffffffffffffffffffffffff16610bef82610681565b73ffffffffffffffffffffffffffffffffffffffff1614610c45576040517f08c379a0000000000000000000000000000000000000000000000000000000008152600401610c3c906120b9565b60405180910390fd5b600073ffffffffffffffffffffffffffffffffffffffff168273ffffffffffffffffffffffffffffffffffffffff1603610cb4576040517f08c379a0000000000000000000000000000000000000000000000000000000008152600401610cab9061214b565b60405180910390fd5b610cc18383836001611410565b8273ffffffffffffffffffffffffffffffffffffffff16610ce182610681565b73ffffffffffffffffffffffffffffffffffffffff1614610d37576040517f08c379a0000000000000000000000000000000000000000000000000000000008152600401610d2e906120b9565b60405180910390fd5b6004600082815260200190815260200160002060006101000a81549073ffffffffffffffffffffffffffffffffffffffff02191690556001600360008573ffffffffffffffffffffffffffffffffffffffff1673ffffffffffffffffffffffffffffffffffffffff168152602001908152602001600020600082825403925050819055506001600360008473ffffffffffffffffffffffffffffffffffffffff1673ffffffffffffffffffffffffffffffffffffffff16815260200190815260200160002060008282540192505081905550816002600083815260200190815260200160002060006101000a81548173ffffffffffffffffffffffffffffffffffffffff021916908373ffffffffffffffffffffffffffffffffffffffff160217905550808273ffffffffffffffffffffffffffffffffffffffff168473ffffffffffffffffffffffffffffffffffffffff167fddf252ad1be2c89b69c2b068fc378daa952ba7f163c4a11628f55a4df523b3ef60405160405180910390a4610ec38383836001611416565b505050565b600073ffffffffffffffffffffffffffffffffffffffff168273ffffffffffffffffffffffffffffffffffffffff1603610f37576040517f08c379a0000000000000000000000000000000000000000000000000000000008152600401610f2e906121b7565b60405180910390fd5b610f40816113cf565b15610f80576040517f08c379a0000000000000000000000000000000000000000000000000000000008152600401610f7790612223565b60405180910390fd5b610f8e600083836001611410565b610f97816113cf565b15610fd7576040517f08c379a0000000000000000000000000000000000000000000000000000000008152600401610fce90612223565b60405180910390fd5b6001600360008473ffffffffffffffffffffffffffffffffffffffff1673ffffffffffffffffffffffffffffffffffffffff16815260200190815260200160002060008282540192505081905550816002600083815260200190815260200160002060006101000a81548173ffffffffffffffffffffffffffffffffffffffff021916908373ffffffffffffffffffffffffffffffffffffffff160217905550808273ffffffffffffffffffffffffffffffffffffffff16600073ffffffffffffffffffffffffffffffffffffffff167fddf252ad1be2c89b69c2b068fc378daa952ba7f163c4a11628f55a4df523b3ef60405160405180910390a46110e1600083836001611416565b5050565b60006002600083815260200190815260200160002060009054906101000a900473ffffffffffffffffffffffffffffffffffffffff169050919050565b8173ffffffffffffffffffffffffffffffffffffffff168373ffffffffffffffffffffffffffffffffffffffff1603611190576040517f08c379a00000000000000000000000000000000000000000000000000000000081526004016111879061228f565b60405180910390fd5b80600560008573ffffffffffffffffffffffffffffffffffffffff1673ffffffffffffffffffffffffffffffffffffffff16815260200190815260200160002060008473ffffffffffffffffffffffffffffffffffffffff1673ffffffffffffffffffffffffffffffffffffffff16815260200190815260200160002060006101000a81548160ff0219169083151502179055508173ffffffffffffffffffffffffffffffffffffffff168373ffffffffffffffffffffffffffffffffffffffff167f17307eab39ab6107e8899845ad3d59bd9653f200f220920489ca2b5937696c318360405161128191906117cd565b60405180910390a3505050565b611299848484610bcf565b6112a58484848461141c565b6112e4576040517f08c379a00000000000000000000000000000000000000000000000000000000081526004016112db90612321565b60405180910390fd5b50505050565b606060405180602001604052806000815250905090565b606060006001611310846115a3565b01905060008167ffffffffffffffff81111561132f5761132e611ae5565b5b6040519080825280601f01601f1916602001820160405280156113615781602001600182028036833780820191505090505b509050600082602001820190505b6001156113c4578080600190039150507f3031323334353637383961626364656600000000000000000000000000000000600a86061a8153600a85816113b8576113b7612341565b5b0494506000850361136f575b819350505050919050565b60008073ffffffffffffffffffffffffffffffffffffffff166113f1836110e5565b73ffffffffffffffffffffffffffffffffffffffff1614159050919050565b50505050565b50505050565b600061143d8473ffffffffffffffffffffffffffffffffffffffff166116f6565b15611596578373ffffffffffffffffffffffffffffffffffffffff1663150b7a02611466610a79565b8786866040518563ffffffff1660e01b815260040161148894939291906123c5565b6020604051808303816000875af19250505080156114c457506040513d601f19601f820116820180604052508101906114c19190612426565b60015b611546573d80600081146114f4576040519150601f19603f3d011682016040523d82523d6000602084013e6114f9565b606091505b50600081510361153e576040517f08c379a000000000000000000000000000000000000000000000000000000000815260040161153590612321565b60405180910390fd5b805181602001fd5b63150b7a0260e01b7bffffffffffffffffffffffffffffffffffffffffffffffffffffffff1916817bffffffffffffffffffffffffffffffffffffffffffffffffffffffff19161491505061159b565b600190505b949350505050565b600080600090507a184f03e93ff9f4daa797ed6e38ed64bf6a1f0100000000000000008310611601577a184f03e93ff9f4daa797ed6e38ed64bf6a1f01000000000000000083816115f7576115f6612341565b5b0492506040810190505b6d04ee2d6d415b85acef8100000000831061163e576d04ee2d6d415b85acef8100000000838161163457611633612341565b5b0492506020810190505b662386f26fc10000831061166d57662386f26fc10000838161166357611662612341565b5b0492506010810190505b6305f5e1008310611696576305f5e100838161168c5761168b612341565b5b0492506008810190505b61271083106116bb5761271083816116b1576116b0612341565b5b0492506004810190505b606483106116de57606483816116d4576116d3612341565b5b0492506002810190505b600a83106116ed576001810190505b80915050919050565b6000808273ffffffffffffffffffffffffffffffffffffffff163b119050919050565b6000604051905090565b600080fd5b600080fd5b60007fffffffff0000000000000000000000000000000000000000000000000000000082169050919050565b6117628161172d565b811461176d57600080fd5b50565b60008135905061177f81611759565b92915050565b60006020828403121561179b5761179a611723565b5b60006117a984828501611770565b91505092915050565b60008115159050919050565b6117c7816117b2565b82525050565b60006020820190506117e260008301846117be565b92915050565b6000819050919050565b6117fb816117e8565b82525050565b600060208201905061181660008301846117f2565b92915050565b600081519050919050565b600082825260208201905092915050565b60005b8381101561185657808201518184015260208101905061183b565b60008484015250505050565b6000601f19601f8301169050919050565b600061187e8261181c565b6118888185611827565b9350611898818560208601611838565b6118a181611862565b840191505092915050565b600060208201905081810360008301526118c68184611873565b905092915050565b6118d7816117e8565b81146118e257600080fd5b50565b6000813590506118f4816118ce565b92915050565b6000602082840312156119105761190f611723565b5b600061191e848285016118e5565b91505092915050565b600073ffffffffffffffffffffffffffffffffffffffff82169050919050565b600061195282611927565b9050919050565b61196281611947565b82525050565b600060208201905061197d6000830184611959565b92915050565b61198c81611947565b811461199757600080fd5b50565b6000813590506119a981611983565b92915050565b600080604083850312156119c6576119c5611723565b5b60006119d48582860161199a565b92505060206119e5858286016118e5565b9150509250929050565b600080600060608486031215611a0857611a07611723565b5b6000611a168682870161199a565b9350506020611a278682870161199a565b9250506040611a38868287016118e5565b9150509250925092565b600060208284031215611a5857611a57611723565b5b6000611a668482850161199a565b91505092915050565b611a78816117b2565b8114611a8357600080fd5b50565b600081359050611a9581611a6f565b92915050565b60008060408385031215611ab257611ab1611723565b5b6000611ac08582860161199a565b9250506020611ad185828601611a86565b9150509250929050565b600080fd5b600080fd5b7f4e487b7100000000000000000000000000000000000000000000000000000000600052604160045260246000fd5b611b1d82611862565b810181811067ffffffffffffffff82111715611b3c57611b3b611ae5565b5b80604052505050565b6000611b4f611719565b9050611b5b8282611b14565b919050565b600067ffffffffffffffff821115611b7b57611b7a611ae5565b5b611b8482611862565b9050602081019050919050565b82818337600083830152505050565b6000611bb3611bae84611b60565b611b45565b905082815260208101848484011115611bcf57611bce611ae0565b5b611bda848285611b91565b509392505050565b600082601f830112611bf757611bf6611adb565b5b8135611c07848260208601611ba0565b91505092915050565b60008060008060808587031215611c2a57611c29611723565b5b6000611c388782880161199a565b9450506020611c498782880161199a565b9350506040611c5a878288016118e5565b925050606085013567ffffffffffffffff811115611c7b57611c7a611728565b5b611c8787828801611be2565b91505092959194509250565b60008060408385031215611caa57611ca9611723565b5b6000611cb88582860161199a565b9250506020611cc98582860161199a565b9150509250929050565b7f4e487b7100000000000000000000000000000000000000000000000000000000600052602260045260246000fd5b60006002820490506001821680611d1a57607f821691505b602082108103611d2d57611d2c611cd3565b5b50919050565b7f4552433732313a20617070726f76616c20746f2063757272656e74206f776e6560008201527f7200000000000000000000000000000000000000000000000000000000000000602082015250565b6000611d8f602183611827565b9150611d9a82611d33565b604082019050919050565b60006020820190508181036000830152611dbe81611d82565b9050919050565b7f4552433732313a20617070726f76652063616c6c6572206973206e6f7420746f60008201527f6b656e206f776e6572206f7220617070726f76656420666f7220616c6c000000602082015250565b6000611e21603d83611827565b9150611e2c82611dc5565b604082019050919050565b60006020820190508181036000830152611e5081611e14565b9050919050565b7f4552433732313a2063616c6c6572206973206e6f7420746f6b656e206f776e6560008201527f72206f7220617070726f76656400000000000000000000000000000000000000602082015250565b6000611eb3602d83611827565b9150611ebe82611e57565b604082019050919050565b60006020820190508181036000830152611ee281611ea6565b9050919050565b7f4552433732313a20696e76616c696420746f6b656e2049440000000000000000600082015250565b6000611f1f601883611827565b9150611f2a82611ee9565b602082019050919050565b60006020820190508181036000830152611f4e81611f12565b9050919050565b7f4552433732313a2061646472657373207a65726f206973206e6f74206120766160008201527f6c6964206f776e65720000000000000000000000000000000000000000000000602082015250565b6000611fb1602983611827565b9150611fbc82611f55565b604082019050919050565b60006020820190508181036000830152611fe081611fa4565b9050919050565b600081905092915050565b6000611ffd8261181c565b6120078185611fe7565b9350612017818560208601611838565b80840191505092915050565b600061202f8285611ff2565b915061203b8284611ff2565b91508190509392505050565b7f4552433732313a207472616e736665722066726f6d20696e636f72726563742060008201527f6f776e6572000000000000000000000000000000000000000000000000000000602082015250565b60006120a3602583611827565b91506120ae82612047565b604082019050919050565b600060208201905081810360008301526120d281612096565b9050919050565b7f4552433732313a207472616e7366657220746f20746865207a65726f2061646460008201527f7265737300000000000000000000000000000000000000000000000000000000602082015250565b6000612135602483611827565b9150612140826120d9565b604082019050919050565b6000602082019050818103600083015261216481612128565b9050919050565b7f4552433732313a206d696e7420746f20746865207a65726f2061646472657373600082015250565b60006121a1602083611827565b91506121ac8261216b565b602082019050919050565b600060208201905081810360008301526121d081612194565b9050919050565b7f4552433732313a20746f6b656e20616c7265616479206d696e74656400000000600082015250565b600061220d601c83611827565b9150612218826121d7565b602082019050919050565b6000602082019050818103600083015261223c81612200565b9050919050565b7f4552433732313a20617070726f766520746f2063616c6c657200000000000000600082015250565b6000612279601983611827565b915061228482612243565b602082019050919050565b600060208201905081810360008301526122a88161226c565b9050919050565b7f4552433732313a207472616e7366657220746f206e6f6e20455243373231526560008201527f63656976657220696d706c656d656e7465720000000000000000000000000000602082015250565b600061230b603283611827565b9150612316826122af565b604082019050919050565b6000602082019050818103600083015261233a816122fe565b9050919050565b7f4e487b7100000000000000000000000000000000000000000000000000000000600052601260045260246000fd5b600081519050919050565b600082825260208201905092915050565b600061239782612370565b6123a1818561237b565b93506123b1818560208601611838565b6123ba81611862565b840191505092915050565b60006080820190506123da6000830187611959565b6123e76020830186611959565b6123f460408301856117f2565b8181036060830152612406818461238c565b905095945050505050565b60008151905061242081611759565b92915050565b60006020828403121561243c5761243b611723565b5b600061244a84828501612411565b9150509291505056fea2646970667358221220a2e7a3036fe26bd960eb55d42942b47d2cbb040deb99bf3e96e6701e3b22c38664736f6c634300081c0033",
  "linkReferences": {},
  "deployedLinkReferences": {}
}