{
  "_format": "hh-sol-artifact-1",
  "contractName": "NFTRentalMarketplace",
  "sourceName": "contracts/NFTRentalMarketplace.sol",
  "abi": [
    {
      "inputs": [
        {
          "internalType": "uint256",
          "name": "listingId",
          "type": "uint256"
        }
      ],
      "name": "delistNFT",
      "outputs": [],
      "stateMutability": "nonpayable",
      "type": "function"
    },
    {
      "inputs": [
        {
          "internalType": "uint256",
          "name": "listingId",
          "type": "uint256"
        }
      ],
      "name": "endRentalAndReclaimNFT",
      "outputs": [],
      "stateMutability": "nonpayable",
      "type": "function"
    },
    {
      "inputs": [
        {
          "internalType": "uint256",
          "name": "listingId",
          "type": "uint256"
        }
      ],
      "name": "getListingDetails",
      "outputs": [
        {
          "components": [
            {
              "internalType": "address",
              "name": "owner",
              "type": "address"
            },
            {
              "internalType": "address",
              "name": "nftContract",
              "type": "address"
            },
            {
              "internalType": "uint256",
              "name": "tokenId",
              "type": "uint256"
            },
            {
              "internalType": "uint256",
              "name": "rentalPricePerDay",
              "type": "uint256"
            },
            {
              "internalType": "uint256",
              "name": "maxRentDurationDays",
              "type": "uint256"
            },
            {
              "internalType": "enum NFTRentalMarketplace.Status",
              "name": "status",
              "type": "uint8"
            },
            {
              "internalType": "uint256",
              "name": "rentalEnd",
              "type": "uint256"
            },
            {
              "internalType": "address",
              "name": "renter",
              "type": "address"
            }
          ],
          "internalType": "struct NFTRentalMarketplace.Listing",
          "name": "",
          "type": "tuple"
        }
      ],
      "stateMutability": "view",
      "type": "function"
    },
    {
      "inputs": [
        {
          "internalType": "address",
          "name": "nftAddress",
          "type": "address"
        },
        {
          "internalType": "uint256",
          "name": "tokenId",
          "type": "uint256"
        }
      ],
      "name": "getRentalDetails",
      "outputs": [
        {
          "components": [
            {
              "internalType": "address",
              "name": "renter",
              "type": "address"
            },
            {
              "internalType": "uint256",
              "name": "endTime",
              "type": "uint256"
            }
          ],
          "internalType": "struct Rental",
          "name": "",
          "type": "tuple"
        }
      ],
      "stateMutability": "view",
      "type": "function"
    },
    {
      "inputs": [
        {
          "internalType": "uint256",
          "name": "listingId",
          "type": "uint256"
        }
      ],
      "name": "getRentalStatus",
      "outputs": [
        {
          "internalType": "string",
          "name": "",
          "type": "string"
        }
      ],
      "stateMutability": "view",
      "type": "function"
    },
    {
      "inputs": [
        {
          "internalType": "address",
          "name": "nftContract",
          "type": "address"
        },
        {
          "internalType": "uint256",
          "name": "tokenId",
          "type": "uint256"
        },
        {
          "internalType": "uint256",
          "name": "rentalPricePerDay",
          "type": "uint256"
        },
        {
          "internalType": "uint256",
          "name": "maxRentDurationDays",
          "type": "uint256"
        }
      ],
      "name": "listNFTForRent",
      "outputs": [],
      "stateMutability": "nonpayable",
      "type": "function"
    },
    {
      "inputs": [],
      "name": "listingCounter",
      "outputs": [
        {
          "internalType": "uint256",
          "name": "",
          "type": "uint256"
        }
      ],
      "stateMutability": "view",
      "type": "function"
    },
    {
      "inputs": [
        {
          "internalType": "uint256",
          "name": "",
          "type": "uint256"
        }
      ],
      "name": "listings",
      "outputs": [
        {
          "internalType": "address",
          "name": "owner",
          "type": "address"
        },
        {
          "internalType": "address",
          "name": "nftContract",
          "type": "address"
        },
        {
          "internalType": "uint256",
          "name": "tokenId",
          "type": "uint256"
        },
        {
          "internalType": "uint256",
          "name": "rentalPricePerDay",
          "type": "uint256"
        },
        {
          "internalType": "uint256",
          "name": "maxRentDurationDays",
          "type": "uint256"
        },
        {
          "internalType": "enum NFTRentalMarketplace.Status",
          "name": "status",
          "type": "uint8"
        },
        {
          "internalType": "uint256",
          "name": "rentalEnd",
          "type": "uint256"
        },
        {
          "internalType": "address",
          "name": "renter",
          "type": "address"
        }
      ],
      "stateMutability": "view",
      "type": "function"
    },
    {
      "inputs": [
        {
          "internalType": "uint256",
          "name": "listingId",
          "type": "uint256"
        },
        {
          "internalType": "uint256",
          "name": "numDays",
          "type": "uint256"
        }
      ],
      "name": "rentNFT",
      "outputs": [],
      "stateMutability": "payable",
      "type": "function"
    },
    {
      "inputs": [
        {
          "internalType": "address",
          "name": "",
          "type": "address"
        },
        {
          "internalType": "uint256",
          "name": "",
          "type": "uint256"
        }
      ],
      "name": "rentals",
      "outputs": [
        {
          "internalType": "address",
          "name": "renter",
          "type": "address"
        },
        {
          "internalType": "uint256",
          "name": "endTime",
          "type": "uint256"
        }
      ],
      "stateMutability": "view",
      "type": "function"
    }
  ],
  "bytecode": "0x6080604052348015600f57600080fd5b50611a098061001f6000396000f3fe6080604052600436106100915760003560e01c806393b2d6a01161005957806393b2d6a01461018e578063cb917b9c146101aa578063dd9c96db146101d3578063de74e57b14610210578063fb05da2e1461025457610091565b806303299bb714610096578063090fc58b146100d35780634bc1a2d61461011157806356eaa1cf1461013a5780636c2c9c7d14610163575b600080fd5b3480156100a257600080fd5b506100bd60048036038101906100b891906110fd565b610291565b6040516100ca919061118a565b60405180910390f35b3480156100df57600080fd5b506100fa60048036038101906100f591906110fd565b61035c565b6040516101089291906111c3565b60405180910390f35b34801561011d57600080fd5b50610138600480360381019061013391906111ec565b6103ad565b005b34801561014657600080fd5b50610161600480360381019061015c9190611253565b61060e565b005b34801561016f57600080fd5b506101786108af565b6040516101859190611280565b60405180910390f35b6101a860048036038101906101a3919061129b565b6108b5565b005b3480156101b657600080fd5b506101d160048036038101906101cc9190611253565b610a7a565b005b3480156101df57600080fd5b506101fa60048036038101906101f59190611253565b610c87565b604051610207919061136b565b60405180910390f35b34801561021c57600080fd5b5061023760048036038101906102329190611253565b610d53565b60405161024b989796959493929190611404565b60405180910390f35b34801561026057600080fd5b5061027b60048036038101906102769190611253565b610e08565b6040516102889190611533565b60405180910390f35b610299610f9b565b600260008473ffffffffffffffffffffffffffffffffffffffff1673ffffffffffffffffffffffffffffffffffffffff16815260200190815260200160002060008381526020019081526020016000206040518060400160405290816000820160009054906101000a900473ffffffffffffffffffffffffffffffffffffffff1673ffffffffffffffffffffffffffffffffffffffff1673ffffffffffffffffffffffffffffffffffffffff168152602001600182015481525050905092915050565b6002602052816000526040600020602052806000526040600020600091509150508060000160009054906101000a900473ffffffffffffffffffffffffffffffffffffffff16908060010154905082565b8373ffffffffffffffffffffffffffffffffffffffff166323b872dd3330866040518463ffffffff1660e01b81526004016103ea9392919061154f565b600060405180830381600087803b15801561040457600080fd5b505af1158015610418573d6000803e3d6000fd5b5050505060008081548092919061042e906115b5565b91905055506040518061010001604052803373ffffffffffffffffffffffffffffffffffffffff1681526020018573ffffffffffffffffffffffffffffffffffffffff1681526020018481526020018381526020018281526020016000600181111561049d5761049c61138d565b5b815260200160008152602001600073ffffffffffffffffffffffffffffffffffffffff16815250600160008054815260200190815260200160002060008201518160000160006101000a81548173ffffffffffffffffffffffffffffffffffffffff021916908373ffffffffffffffffffffffffffffffffffffffff16021790555060208201518160010160006101000a81548173ffffffffffffffffffffffffffffffffffffffff021916908373ffffffffffffffffffffffffffffffffffffffff16021790555060408201518160020155606082015181600301556080820151816004015560a08201518160050160006101000a81548160ff021916908360018111156105af576105ae61138d565b5b021790555060c0820151816006015560e08201518160070160006101000a81548173ffffffffffffffffffffffffffffffffffffffff021916908373ffffffffffffffffffffffffffffffffffffffff16021790555090505050505050565b60006001600083815260200190815260200160002090506001808111156106385761063761138d565b5b8160050160009054906101000a900460ff16600181111561065c5761065b61138d565b5b1461069c576040517f08c379a000000000000000000000000000000000000000000000000000000000815260040161069390611649565b60405180910390fd5b80600601544210156106e3576040517f08c379a00000000000000000000000000000000000000000000000000000000081526004016106da906116b5565b60405180910390fd5b8060000160009054906101000a900473ffffffffffffffffffffffffffffffffffffffff1673ffffffffffffffffffffffffffffffffffffffff163373ffffffffffffffffffffffffffffffffffffffff1614610775576040517f08c379a000000000000000000000000000000000000000000000000000000000815260040161076c90611721565b60405180910390fd5b60008160050160006101000a81548160ff0219169083600181111561079d5761079c61138d565b5b021790555060008160070160006101000a81548173ffffffffffffffffffffffffffffffffffffffff021916908373ffffffffffffffffffffffffffffffffffffffff160217905550600081600601819055508060010160009054906101000a900473ffffffffffffffffffffffffffffffffffffffff1673ffffffffffffffffffffffffffffffffffffffff166323b872dd308360000160009054906101000a900473ffffffffffffffffffffffffffffffffffffffff1684600201546040518463ffffffff1660e01b81526004016108799392919061154f565b600060405180830381600087803b15801561089357600080fd5b505af11580156108a7573d6000803e3d6000fd5b505050505050565b60005481565b6000600160008481526020019081526020016000209050600060018111156108e0576108df61138d565b5b8160050160009054906101000a900460ff1660018111156109045761090361138d565b5b14610944576040517f08c379a000000000000000000000000000000000000000000000000000000000815260040161093b9061178d565b60405180910390fd5b806004015482111561098b576040517f08c379a0000000000000000000000000000000000000000000000000000000008152600401610982906117f9565b60405180910390fd5b600082826003015461099d9190611819565b9050803410156109e2576040517f08c379a00000000000000000000000000000000000000000000000000000000081526004016109d9906118a7565b60405180910390fd5b60018260050160006101000a81548160ff02191690836001811115610a0a57610a0961138d565b5b0217905550338260070160006101000a81548173ffffffffffffffffffffffffffffffffffffffff021916908373ffffffffffffffffffffffffffffffffffffffff1602179055506201518083610a619190611819565b42610a6c91906118c7565b826006018190555050505050565b600060016000838152602001908152602001600020905060006001811115610aa557610aa461138d565b5b8160050160009054906101000a900460ff166001811115610ac957610ac861138d565b5b14610b09576040517f08c379a0000000000000000000000000000000000000000000000000000000008152600401610b0090611947565b60405180910390fd5b8060000160009054906101000a900473ffffffffffffffffffffffffffffffffffffffff1673ffffffffffffffffffffffffffffffffffffffff163373ffffffffffffffffffffffffffffffffffffffff1614610b9b576040517f08c379a0000000000000000000000000000000000000000000000000000000008152600401610b92906119b3565b60405180910390fd5b60008160050160006101000a81548160ff02191690836001811115610bc357610bc261138d565b5b02179055508060010160009054906101000a900473ffffffffffffffffffffffffffffffffffffffff1673ffffffffffffffffffffffffffffffffffffffff166323b872dd308360000160009054906101000a900473ffffffffffffffffffffffffffffffffffffffff1684600201546040518463ffffffff1660e01b8152600401610c519392919061154f565b600060405180830381600087803b158015610c6b57600080fd5b505af1158015610c7f573d6000803e3d6000fd5b505050505050565b606060006001811115610c9d57610c9c61138d565b5b6001600084815260200190815260200160002060050160009054906101000a900460ff166001811115610cd357610cd261138d565b5b03610d15576040518060400160405280600981526020017f417661696c61626c6500000000000000000000000000000000000000000000008152509050610d4e565b6040518060400160405280600681526020017f52656e746564000000000000000000000000000000000000000000000000000081525090505b919050565b60016020528060005260406000206000915090508060000160009054906101000a900473ffffffffffffffffffffffffffffffffffffffff16908060010160009054906101000a900473ffffffffffffffffffffffffffffffffffffffff16908060020154908060030154908060040154908060050160009054906101000a900460ff16908060060154908060070160009054906101000a900473ffffffffffffffffffffffffffffffffffffffff16905088565b610e10610fcb565b60016000838152602001908152602001600020604051806101000160405290816000820160009054906101000a900473ffffffffffffffffffffffffffffffffffffffff1673ffffffffffffffffffffffffffffffffffffffff1673ffffffffffffffffffffffffffffffffffffffff1681526020016001820160009054906101000a900473ffffffffffffffffffffffffffffffffffffffff1673ffffffffffffffffffffffffffffffffffffffff1673ffffffffffffffffffffffffffffffffffffffff1681526020016002820154815260200160038201548152602001600482015481526020016005820160009054906101000a900460ff166001811115610f1e57610f1d61138d565b5b6001811115610f3057610f2f61138d565b5b8152602001600682015481526020016007820160009054906101000a900473ffffffffffffffffffffffffffffffffffffffff1673ffffffffffffffffffffffffffffffffffffffff1673ffffffffffffffffffffffffffffffffffffffff16815250509050919050565b6040518060400160405280600073ffffffffffffffffffffffffffffffffffffffff168152602001600081525090565b604051806101000160405280600073ffffffffffffffffffffffffffffffffffffffff168152602001600073ffffffffffffffffffffffffffffffffffffffff1681526020016000815260200160008152602001600081526020016000600181111561103a5761103961138d565b5b815260200160008152602001600073ffffffffffffffffffffffffffffffffffffffff1681525090565b600080fd5b600073ffffffffffffffffffffffffffffffffffffffff82169050919050565b600061109482611069565b9050919050565b6110a481611089565b81146110af57600080fd5b50565b6000813590506110c18161109b565b92915050565b6000819050919050565b6110da816110c7565b81146110e557600080fd5b50565b6000813590506110f7816110d1565b92915050565b6000806040838503121561111457611113611064565b5b6000611122858286016110b2565b9250506020611133858286016110e8565b9150509250929050565b61114681611089565b82525050565b611155816110c7565b82525050565b604082016000820151611171600085018261113d565b506020820151611184602085018261114c565b50505050565b600060408201905061119f600083018461115b565b92915050565b6111ae81611089565b82525050565b6111bd816110c7565b82525050565b60006040820190506111d860008301856111a5565b6111e560208301846111b4565b9392505050565b6000806000806080858703121561120657611205611064565b5b6000611214878288016110b2565b9450506020611225878288016110e8565b9350506040611236878288016110e8565b9250506060611247878288016110e8565b91505092959194509250565b60006020828403121561126957611268611064565b5b6000611277848285016110e8565b91505092915050565b600060208201905061129560008301846111b4565b92915050565b600080604083850312156112b2576112b1611064565b5b60006112c0858286016110e8565b92505060206112d1858286016110e8565b9150509250929050565b600081519050919050565b600082825260208201905092915050565b60005b838110156113155780820151818401526020810190506112fa565b60008484015250505050565b6000601f19601f8301169050919050565b600061133d826112db565b61134781856112e6565b93506113578185602086016112f7565b61136081611321565b840191505092915050565b600060208201905081810360008301526113858184611332565b905092915050565b7f4e487b7100000000000000000000000000000000000000000000000000000000600052602160045260246000fd5b600281106113cd576113cc61138d565b5b50565b60008190506113de826113bc565b919050565b60006113ee826113d0565b9050919050565b6113fe816113e3565b82525050565b60006101008201905061141a600083018b6111a5565b611427602083018a6111a5565b61143460408301896111b4565b61144160608301886111b4565b61144e60808301876111b4565b61145b60a08301866113f5565b61146860c08301856111b4565b61147560e08301846111a5565b9998505050505050505050565b61148b816113e3565b82525050565b610100820160008201516114a8600085018261113d565b5060208201516114bb602085018261113d565b5060408201516114ce604085018261114c565b5060608201516114e1606085018261114c565b5060808201516114f4608085018261114c565b5060a082015161150760a0850182611482565b5060c082015161151a60c085018261114c565b5060e082015161152d60e085018261113d565b50505050565b6000610100820190506115496000830184611491565b92915050565b600060608201905061156460008301866111a5565b61157160208301856111a5565b61157e60408301846111b4565b949350505050565b7f4e487b7100000000000000000000000000000000000000000000000000000000600052601160045260246000fd5b60006115c0826110c7565b91507fffffffffffffffffffffffffffffffffffffffffffffffffffffffffffffffff82036115f2576115f1611586565b5b600182019050919050565b7f4e6f742072656e74656400000000000000000000000000000000000000000000600082015250565b6000611633600a836112e6565b915061163e826115fd565b602082019050919050565b6000602082019050818103600083015261166281611626565b9050919050565b7f52656e74616c20706572696f64206e6f74206f76657200000000000000000000600082015250565b600061169f6016836112e6565b91506116aa82611669565b602082019050919050565b600060208201905081810360008301526116ce81611692565b9050919050565b7f4f6e6c79206f776e65722063616e207265636c61696d00000000000000000000600082015250565b600061170b6016836112e6565b9150611716826116d5565b602082019050919050565b6000602082019050818103600083015261173a816116fe565b9050919050565b7f4e6f7420617661696c61626c6500000000000000000000000000000000000000600082015250565b6000611777600d836112e6565b915061178282611741565b602082019050919050565b600060208201905081810360008301526117a68161176a565b9050919050565b7f546f6f206d616e79206461797300000000000000000000000000000000000000600082015250565b60006117e3600d836112e6565b91506117ee826117ad565b602082019050919050565b60006020820190508181036000830152611812816117d6565b9050919050565b6000611824826110c7565b915061182f836110c7565b925082820261183d816110c7565b9150828204841483151761185457611853611586565b5b5092915050565b7f4e6f7420656e6f756768207061796d656e740000000000000000000000000000600082015250565b60006118916012836112e6565b915061189c8261185b565b602082019050919050565b600060208201905081810360008301526118c081611884565b9050919050565b60006118d2826110c7565b91506118dd836110c7565b92508282019050808211156118f5576118f4611586565b5b92915050565b7f43616e6e6f742064656c697374207768696c652072656e746564000000000000600082015250565b6000611931601a836112e6565b915061193c826118fb565b602082019050919050565b6000602082019050818103600083015261196081611924565b9050919050565b7f4f6e6c79206f776e65722063616e2064656c6973740000000000000000000000600082015250565b600061199d6015836112e6565b91506119a882611967565b602082019050919050565b600060208201905081810360008301526119cc81611990565b905091905056fea2646970667358221220729cd4fa6810976f68a65a29aeab7f2c2c3a1af0d59e1e58400a96b9a849c2b664736f6c634300081c0033",
  "linkReferences": {},
  "deployedLinkReferences": {}
}